{
  "_format": "hh-sol-artifact-1",
  "contractName": "Stolen",
  "sourceName": "contracts/Stolen.sol",
  "abi": [
    {
      "inputs": [],
      "stateMutability": "nonpayable",
      "type": "constructor"
    },
    {
      "anonymous": false,
      "inputs": [
        {
          "indexed": false,
          "internalType": "address",
          "name": "previousAdmin",
          "type": "address"
        },
        {
          "indexed": false,
          "internalType": "address",
          "name": "newAdmin",
          "type": "address"
        }
      ],
      "name": "AdminChanged",
      "type": "event"
    },
    {
      "anonymous": false,
      "inputs": [
        {
          "indexed": true,
          "internalType": "address",
          "name": "owner",
          "type": "address"
        },
        {
          "indexed": true,
          "internalType": "address",
          "name": "approved",
          "type": "address"
        },
        {
          "indexed": true,
          "internalType": "uint256",
          "name": "tokenId",
          "type": "uint256"
        }
      ],
      "name": "Approval",
      "type": "event"
    },
    {
      "anonymous": false,
      "inputs": [
        {
          "indexed": true,
          "internalType": "address",
          "name": "owner",
          "type": "address"
        },
        {
          "indexed": true,
          "internalType": "address",
          "name": "operator",
          "type": "address"
        },
        {
          "indexed": false,
          "internalType": "bool",
          "name": "approved",
          "type": "bool"
        }
      ],
      "name": "ApprovalForAll",
      "type": "event"
    },
    {
      "anonymous": false,
      "inputs": [
        {
          "indexed": true,
          "internalType": "address",
          "name": "beacon",
          "type": "address"
        }
      ],
      "name": "BeaconUpgraded",
      "type": "event"
    },
    {
      "anonymous": false,
      "inputs": [
        {
          "indexed": false,
          "internalType": "uint8",
          "name": "version",
          "type": "uint8"
        }
      ],
      "name": "Initialized",
      "type": "event"
    },
    {
      "anonymous": false,
      "inputs": [
        {
          "indexed": true,
          "internalType": "address",
          "name": "previousOwner",
          "type": "address"
        },
        {
          "indexed": true,
          "internalType": "address",
          "name": "newOwner",
          "type": "address"
        }
      ],
      "name": "OwnershipTransferred",
      "type": "event"
    },
    {
      "anonymous": false,
      "inputs": [
        {
          "indexed": true,
          "internalType": "address",
          "name": "from",
          "type": "address"
        },
        {
          "indexed": true,
          "internalType": "address",
          "name": "to",
          "type": "address"
        },
        {
          "indexed": true,
          "internalType": "uint256",
          "name": "tokenId",
          "type": "uint256"
        }
      ],
      "name": "Transfer",
      "type": "event"
    },
    {
      "anonymous": false,
      "inputs": [
        {
          "indexed": true,
          "internalType": "address",
          "name": "implementation",
          "type": "address"
        }
      ],
      "name": "Upgraded",
      "type": "event"
    },
    {
      "inputs": [
        {
          "internalType": "address",
          "name": "to",
          "type": "address"
        },
        {
          "internalType": "uint256",
          "name": "tokenId",
          "type": "uint256"
        }
      ],
      "name": "approve",
      "outputs": [],
      "stateMutability": "nonpayable",
      "type": "function"
    },
    {
      "inputs": [
        {
          "internalType": "address",
          "name": "owner",
          "type": "address"
        }
      ],
      "name": "balanceOf",
      "outputs": [
        {
          "internalType": "uint256",
          "name": "",
          "type": "uint256"
        }
      ],
      "stateMutability": "view",
      "type": "function"
    },
    {
      "inputs": [
        {
          "internalType": "uint256",
          "name": "tokenId",
          "type": "uint256"
        }
      ],
      "name": "burn",
      "outputs": [],
      "stateMutability": "nonpayable",
      "type": "function"
    },
    {
      "inputs": [
        {
          "internalType": "uint256",
          "name": "tokenId",
          "type": "uint256"
        }
      ],
      "name": "getApproved",
      "outputs": [
        {
          "internalType": "address",
          "name": "",
          "type": "address"
        }
      ],
      "stateMutability": "view",
      "type": "function"
    },
    {
      "inputs": [],
      "name": "initialize",
      "outputs": [],
      "stateMutability": "nonpayable",
      "type": "function"
    },
    {
      "inputs": [
        {
          "internalType": "address",
          "name": "owner",
          "type": "address"
        },
        {
          "internalType": "address",
          "name": "operator",
          "type": "address"
        }
      ],
      "name": "isApprovedForAll",
      "outputs": [
        {
          "internalType": "bool",
          "name": "",
          "type": "bool"
        }
      ],
      "stateMutability": "view",
      "type": "function"
    },
    {
      "inputs": [
        {
          "internalType": "uint256",
          "name": "",
          "type": "uint256"
        }
      ],
      "name": "lastPrices",
      "outputs": [
        {
          "internalType": "uint256",
          "name": "",
          "type": "uint256"
        }
      ],
      "stateMutability": "view",
      "type": "function"
    },
    {
      "inputs": [],
      "name": "maxOwnerCollectionSize",
      "outputs": [
        {
          "internalType": "uint256",
          "name": "",
          "type": "uint256"
        }
      ],
      "stateMutability": "view",
      "type": "function"
    },
    {
      "inputs": [
        {
          "internalType": "uint256",
          "name": "tokenId",
          "type": "uint256"
        }
      ],
      "name": "minPrice",
      "outputs": [
        {
          "internalType": "uint256",
          "name": "",
          "type": "uint256"
        }
      ],
      "stateMutability": "view",
      "type": "function"
    },
    {
      "inputs": [],
      "name": "name",
      "outputs": [
        {
          "internalType": "string",
          "name": "",
          "type": "string"
        }
      ],
      "stateMutability": "view",
      "type": "function"
    },
    {
      "inputs": [],
      "name": "owner",
      "outputs": [
        {
          "internalType": "address",
          "name": "",
          "type": "address"
        }
      ],
      "stateMutability": "view",
      "type": "function"
    },
    {
      "inputs": [
        {
          "internalType": "uint256",
          "name": "tokenId",
          "type": "uint256"
        }
      ],
      "name": "ownerOf",
      "outputs": [
        {
          "internalType": "address",
          "name": "",
          "type": "address"
        }
      ],
      "stateMutability": "view",
      "type": "function"
    },
    {
      "inputs": [],
      "name": "priceChangeRate",
      "outputs": [
        {
          "internalType": "uint256",
          "name": "",
          "type": "uint256"
        }
      ],
      "stateMutability": "view",
      "type": "function"
    },
    {
      "inputs": [],
      "name": "proxiableUUID",
      "outputs": [
        {
          "internalType": "bytes32",
          "name": "",
          "type": "bytes32"
        }
      ],
      "stateMutability": "view",
      "type": "function"
    },
    {
      "inputs": [
        {
          "internalType": "uint256",
          "name": "tokenId",
          "type": "uint256"
        },
        {
          "internalType": "bytes",
          "name": "data",
          "type": "bytes"
        }
      ],
      "name": "purchase",
      "outputs": [],
      "stateMutability": "payable",
      "type": "function"
    },
    {
      "inputs": [
        {
          "internalType": "uint256",
          "name": "tokenId",
          "type": "uint256"
        }
      ],
      "name": "purchase",
      "outputs": [],
      "stateMutability": "payable",
      "type": "function"
    },
    {
      "inputs": [],
      "name": "purchaseThreshold",
      "outputs": [
        {
          "internalType": "uint256",
          "name": "",
          "type": "uint256"
        }
      ],
      "stateMutability": "view",
      "type": "function"
    },
    {
      "inputs": [],
      "name": "renounceOwnership",
      "outputs": [],
      "stateMutability": "nonpayable",
      "type": "function"
    },
    {
      "inputs": [
        {
          "internalType": "uint256",
          "name": "_tokenId",
          "type": "uint256"
        },
        {
          "internalType": "uint256",
          "name": "_salePrice",
          "type": "uint256"
        }
      ],
      "name": "royaltyInfo",
      "outputs": [
        {
          "internalType": "address",
          "name": "",
          "type": "address"
        },
        {
          "internalType": "uint256",
          "name": "",
          "type": "uint256"
        }
      ],
      "stateMutability": "view",
      "type": "function"
    },
    {
      "inputs": [
        {
          "internalType": "address",
          "name": "to",
          "type": "address"
        },
        {
          "internalType": "uint256",
          "name": "tokenId",
          "type": "uint256"
        }
      ],
      "name": "safeMint",
      "outputs": [],
      "stateMutability": "nonpayable",
      "type": "function"
    },
    {
      "inputs": [
        {
          "internalType": "address",
          "name": "from",
          "type": "address"
        },
        {
          "internalType": "address",
          "name": "to",
          "type": "address"
        },
        {
          "internalType": "uint256",
          "name": "tokenId",
          "type": "uint256"
        }
      ],
      "name": "safeTransferFrom",
      "outputs": [],
      "stateMutability": "nonpayable",
      "type": "function"
    },
    {
      "inputs": [
        {
          "internalType": "address",
          "name": "from",
          "type": "address"
        },
        {
          "internalType": "address",
          "name": "to",
          "type": "address"
        },
        {
          "internalType": "uint256",
          "name": "tokenId",
          "type": "uint256"
        },
        {
          "internalType": "bytes",
          "name": "data",
          "type": "bytes"
        }
      ],
      "name": "safeTransferFrom",
      "outputs": [],
      "stateMutability": "nonpayable",
      "type": "function"
    },
    {
      "inputs": [
        {
          "internalType": "address",
          "name": "operator",
          "type": "address"
        },
        {
          "internalType": "bool",
          "name": "approved",
          "type": "bool"
        }
      ],
      "name": "setApprovalForAll",
      "outputs": [],
      "stateMutability": "nonpayable",
      "type": "function"
    },
    {
      "inputs": [
        {
          "internalType": "address",
          "name": "receiver",
          "type": "address"
        },
        {
          "internalType": "uint96",
          "name": "feeNumerator",
          "type": "uint96"
        }
      ],
      "name": "setDefaultRoyalty",
      "outputs": [],
      "stateMutability": "nonpayable",
      "type": "function"
    },
    {
      "inputs": [
        {
          "internalType": "uint256",
          "name": "limit",
          "type": "uint256"
        }
      ],
      "name": "setMaxOwnerCollectionSize",
      "outputs": [],
      "stateMutability": "nonpayable",
      "type": "function"
    },
    {
      "inputs": [
        {
          "internalType": "uint256",
          "name": "feeNumerator",
          "type": "uint256"
        }
      ],
      "name": "setPriceChangeRate",
      "outputs": [],
      "stateMutability": "nonpayable",
      "type": "function"
    },
    {
      "inputs": [
        {
          "internalType": "uint256",
          "name": "startingPrice",
          "type": "uint256"
        }
      ],
      "name": "setPurchaseThreshold",
      "outputs": [],
      "stateMutability": "nonpayable",
      "type": "function"
    },
    {
      "inputs": [
        {
          "internalType": "address",
          "name": "_address",
          "type": "address"
        }
      ],
      "name": "slash",
      "outputs": [],
      "stateMutability": "nonpayable",
      "type": "function"
    },
    {
      "inputs": [
        {
          "internalType": "bytes4",
          "name": "interfaceId",
          "type": "bytes4"
        }
      ],
      "name": "supportsInterface",
      "outputs": [
        {
          "internalType": "bool",
          "name": "",
          "type": "bool"
        }
      ],
      "stateMutability": "view",
      "type": "function"
    },
    {
      "inputs": [],
      "name": "symbol",
      "outputs": [
        {
          "internalType": "string",
          "name": "",
          "type": "string"
        }
      ],
      "stateMutability": "view",
      "type": "function"
    },
    {
      "inputs": [
        {
          "internalType": "uint256",
          "name": "index",
          "type": "uint256"
        }
      ],
      "name": "tokenByIndex",
      "outputs": [
        {
          "internalType": "uint256",
          "name": "",
          "type": "uint256"
        }
      ],
      "stateMutability": "view",
      "type": "function"
    },
    {
      "inputs": [
        {
          "internalType": "address",
          "name": "owner",
          "type": "address"
        },
        {
          "internalType": "uint256",
          "name": "index",
          "type": "uint256"
        }
      ],
      "name": "tokenOfOwnerByIndex",
      "outputs": [
        {
          "internalType": "uint256",
          "name": "",
          "type": "uint256"
        }
      ],
      "stateMutability": "view",
      "type": "function"
    },
    {
      "inputs": [
        {
          "internalType": "uint256",
          "name": "tokenId",
          "type": "uint256"
        }
      ],
      "name": "tokenURI",
      "outputs": [
        {
          "internalType": "string",
          "name": "",
          "type": "string"
        }
      ],
      "stateMutability": "view",
      "type": "function"
    },
    {
      "inputs": [],
      "name": "totalSupply",
      "outputs": [
        {
          "internalType": "uint256",
          "name": "",
          "type": "uint256"
        }
      ],
      "stateMutability": "view",
      "type": "function"
    },
    {
      "inputs": [
        {
          "internalType": "address",
          "name": "from",
          "type": "address"
        },
        {
          "internalType": "address",
          "name": "to",
          "type": "address"
        },
        {
          "internalType": "uint256",
          "name": "tokenId",
          "type": "uint256"
        }
      ],
      "name": "transferFrom",
      "outputs": [],
      "stateMutability": "nonpayable",
      "type": "function"
    },
    {
      "inputs": [
        {
          "internalType": "address",
          "name": "newOwner",
          "type": "address"
        }
      ],
      "name": "transferOwnership",
      "outputs": [],
      "stateMutability": "nonpayable",
      "type": "function"
    },
    {
      "inputs": [
        {
          "internalType": "address",
          "name": "newImplementation",
          "type": "address"
        }
      ],
      "name": "upgradeTo",
      "outputs": [],
      "stateMutability": "nonpayable",
      "type": "function"
    },
    {
      "inputs": [
        {
          "internalType": "address",
          "name": "newImplementation",
          "type": "address"
        },
        {
          "internalType": "bytes",
          "name": "data",
          "type": "bytes"
        }
      ],
      "name": "upgradeToAndCall",
      "outputs": [],
      "stateMutability": "payable",
      "type": "function"
    }
  ],
  "bytecode": "0x60a06040523073ffffffffffffffffffffffffffffffffffffffff1660809073ffffffffffffffffffffffffffffffffffffffff168152503480156200004457600080fd5b50620000556200005b60201b60201c565b62000206565b600060019054906101000a900460ff1615620000ae576040517f08c379a0000000000000000000000000000000000000000000000000000000008152600401620000a590620001a9565b60405180910390fd5b60ff801660008054906101000a900460ff1660ff161015620001205760ff6000806101000a81548160ff021916908360ff1602179055507f7f26b83ff96e1f2b6a682f133852f6798a09c465da95921460cefb384740249860ff604051620001179190620001e9565b60405180910390a15b565b600082825260208201905092915050565b7f496e697469616c697a61626c653a20636f6e747261637420697320696e69746960008201527f616c697a696e6700000000000000000000000000000000000000000000000000602082015250565b60006200019160278362000122565b91506200019e8262000133565b604082019050919050565b60006020820190508181036000830152620001c48162000182565b9050919050565b600060ff82169050919050565b620001e381620001cb565b82525050565b6000602082019050620002006000830184620001d8565b92915050565b608051615c296200023e60003960008181610e8801528181610f17015281816110720152818161110101526112220152615c296000f3fe6080604052600436106102255760003560e01c806370a0823111610123578063b88d4fde116100ab578063e9b5b6621161006f578063e9b5b6621461082f578063efef39a11461084b578063f2fde38b14610867578063f7c1cce214610890578063ffb97267146108b957610225565b8063b88d4fde1461073a578063c87b56dd14610763578063c96be4cb146107a0578063cfe59645146107c9578063e985e9c5146107f257610225565b806395d89b41116100f257806395d89b4114610667578063a013665a14610692578063a1448194146106bd578063a22cb465146106e6578063a4ee0d1f1461070f57610225565b806370a08231146105d1578063715018a61461060e5780638129fc1c146106255780638da5cb5b1461063c57610225565b80632f745c59116101b15780634f1ef286116101755780634f1ef286146104e55780634f6ccce71461050157806352d1902d1461053e578063544d5ffe146105695780636352211e1461059457610225565b80632f745c59146103f05780633245dea51461042d5780633659cfe61461046a57806342842e0e1461049357806342966c68146104bc57610225565b8063081812fc116101f8578063081812fc146102f8578063095ea7b31461033557806318160ddd1461035e57806323b872dd146103895780632a55205a146103b257610225565b806301ffc9a71461022a57806304634d8d1461026757806306ce111a1461029057806306fdde03146102cd575b600080fd5b34801561023657600080fd5b50610251600480360381019061024c9190613f21565b6108e2565b60405161025e9190613f69565b60405180910390f35b34801561027357600080fd5b5061028e60048036038101906102899190614026565b61095c565b005b34801561029c57600080fd5b506102b760048036038101906102b2919061409c565b610972565b6040516102c491906140d8565b60405180910390f35b3480156102d957600080fd5b506102e26109db565b6040516102ef919061418c565b60405180910390f35b34801561030457600080fd5b5061031f600480360381019061031a919061409c565b610a6d565b60405161032c91906141bd565b60405180910390f35b34801561034157600080fd5b5061035c600480360381019061035791906141d8565b610ab3565b005b34801561036a57600080fd5b50610373610bcb565b60405161038091906140d8565b60405180910390f35b34801561039557600080fd5b506103b060048036038101906103ab9190614218565b610bd8565b005b3480156103be57600080fd5b506103d960048036038101906103d4919061426b565b610bdd565b6040516103e79291906142ab565b60405180910390f35b3480156103fc57600080fd5b50610417600480360381019061041291906141d8565b610dc8565b60405161042491906140d8565b60405180910390f35b34801561043957600080fd5b50610454600480360381019061044f919061409c565b610e6d565b60405161046191906140d8565b60405180910390f35b34801561047657600080fd5b50610491600480360381019061048c91906142d4565b610e86565b005b34801561049f57600080fd5b506104ba60048036038101906104b59190614218565b61100f565b005b3480156104c857600080fd5b506104e360048036038101906104de919061409c565b611014565b005b6104ff60048036038101906104fa9190614436565b611070565b005b34801561050d57600080fd5b506105286004803603810190610523919061409c565b6111ad565b60405161053591906140d8565b60405180910390f35b34801561054a57600080fd5b5061055361121e565b60405161056091906144ab565b60405180910390f35b34801561057557600080fd5b5061057e6112d7565b60405161058b91906140d8565b60405180910390f35b3480156105a057600080fd5b506105bb60048036038101906105b6919061409c565b6112de565b6040516105c891906141bd565b60405180910390f35b3480156105dd57600080fd5b506105f860048036038101906105f391906142d4565b611365565b60405161060591906140d8565b60405180910390f35b34801561061a57600080fd5b5061062361141d565b005b34801561063157600080fd5b5061063a611431565b005b34801561064857600080fd5b50610651611603565b60405161065e91906141bd565b60405180910390f35b34801561067357600080fd5b5061067c61162e565b604051610689919061418c565b60405180910390f35b34801561069e57600080fd5b506106a76116c0565b6040516106b491906140d8565b60405180910390f35b3480156106c957600080fd5b506106e460048036038101906106df91906141d8565b6116c7565b005b3480156106f257600080fd5b5061070d600480360381019061070891906144f2565b611722565b005b34801561071b57600080fd5b50610724611738565b60405161073191906140d8565b60405180910390f35b34801561074657600080fd5b50610761600480360381019061075c9190614532565b61173f565b005b34801561076f57600080fd5b5061078a6004803603810190610785919061409c565b611745565b604051610797919061418c565b60405180910390f35b3480156107ac57600080fd5b506107c760048036038101906107c291906142d4565b6117ad565b005b3480156107d557600080fd5b506107f060048036038101906107eb919061409c565b611851565b005b3480156107fe57600080fd5b50610819600480360381019061081491906145b5565b611864565b6040516108269190613f69565b60405180910390f35b610849600480360381019061084491906145f5565b6118f8565b005b6108656004803603810190610860919061409c565b611a0d565b005b34801561087357600080fd5b5061088e600480360381019061088991906142d4565b611b30565b005b34801561089c57600080fd5b506108b760048036038101906108b2919061409c565b611bb4565b005b3480156108c557600080fd5b506108e060048036038101906108db919061409c565b611bc7565b005b60007f2a55205a000000000000000000000000000000000000000000000000000000007bffffffffffffffffffffffffffffffffffffffffffffffffffffffff1916827bffffffffffffffffffffffffffffffffffffffffffffffffffffffff19161480610955575061095482611bda565b5b9050919050565b610964611c54565b61096e8282611cd2565b5050565b60008061097d611e68565b6bffffffffffffffffffffffff166101c45461099991906146af565b60016109a591906146e0565b6101c66000858152602001908152602001600020546109c49190614736565b90506109d3816101c554611e72565b915050919050565b6060606580546109ea906147bf565b80601f0160208091040260200160405190810160405280929190818152602001828054610a16906147bf565b8015610a635780601f10610a3857610100808354040283529160200191610a63565b820191906000526020600020905b815481529060010190602001808311610a4657829003601f168201915b5050505050905090565b6000610a7882611e8b565b6069600083815260200190815260200160002060009054906101000a900473ffffffffffffffffffffffffffffffffffffffff169050919050565b6000610abe826112de565b90508073ffffffffffffffffffffffffffffffffffffffff168373ffffffffffffffffffffffffffffffffffffffff161415610b2f576040517f08c379a0000000000000000000000000000000000000000000000000000000008152600401610b2690614863565b60405180910390fd5b8073ffffffffffffffffffffffffffffffffffffffff16610b4e611ed6565b73ffffffffffffffffffffffffffffffffffffffff161480610b7d5750610b7c81610b77611ed6565b611864565b5b610bbc576040517f08c379a0000000000000000000000000000000000000000000000000000000008152600401610bb3906148f5565b60405180910390fd5b610bc68383611ede565b505050565b600060cb80549050905090565b505050565b6000806000609860008681526020019081526020016000206040518060400160405290816000820160009054906101000a900473ffffffffffffffffffffffffffffffffffffffff1673ffffffffffffffffffffffffffffffffffffffff1673ffffffffffffffffffffffffffffffffffffffff1681526020016000820160149054906101000a90046bffffffffffffffffffffffff166bffffffffffffffffffffffff166bffffffffffffffffffffffff16815250509050600073ffffffffffffffffffffffffffffffffffffffff16816000015173ffffffffffffffffffffffffffffffffffffffff161415610d735760976040518060400160405290816000820160009054906101000a900473ffffffffffffffffffffffffffffffffffffffff1673ffffffffffffffffffffffffffffffffffffffff1673ffffffffffffffffffffffffffffffffffffffff1681526020016000820160149054906101000a90046bffffffffffffffffffffffff166bffffffffffffffffffffffff166bffffffffffffffffffffffff168152505090505b6000610d7d611f97565b6bffffffffffffffffffffffff1682602001516bffffffffffffffffffffffff1686610da99190614736565b610db391906146af565b90508160000151819350935050509250929050565b6000610dd383611365565b8210610e14576040517f08c379a0000000000000000000000000000000000000000000000000000000008152600401610e0b90614987565b60405180910390fd5b60c960008473ffffffffffffffffffffffffffffffffffffffff1673ffffffffffffffffffffffffffffffffffffffff168152602001908152602001600020600083815260200190815260200160002054905092915050565b6101c66020528060005260406000206000915090505481565b7f000000000000000000000000000000000000000000000000000000000000000073ffffffffffffffffffffffffffffffffffffffff163073ffffffffffffffffffffffffffffffffffffffff161415610f15576040517f08c379a0000000000000000000000000000000000000000000000000000000008152600401610f0c90614a19565b60405180910390fd5b7f000000000000000000000000000000000000000000000000000000000000000073ffffffffffffffffffffffffffffffffffffffff16610f54611fa1565b73ffffffffffffffffffffffffffffffffffffffff1614610faa576040517f08c379a0000000000000000000000000000000000000000000000000000000008152600401610fa190614aab565b60405180910390fd5b610fb381611ff8565b61100c81600067ffffffffffffffff811115610fd257610fd161430b565b5b6040519080825280601f01601f1916602001820160405280156110045781602001600182028036833780820191505090505b506000612003565b50565b505050565b61102561101f611ed6565b82612180565b611064576040517f08c379a000000000000000000000000000000000000000000000000000000000815260040161105b90614b3d565b60405180910390fd5b61106d81612215565b50565b7f000000000000000000000000000000000000000000000000000000000000000073ffffffffffffffffffffffffffffffffffffffff163073ffffffffffffffffffffffffffffffffffffffff1614156110ff576040517f08c379a00000000000000000000000000000000000000000000000000000000081526004016110f690614a19565b60405180910390fd5b7f000000000000000000000000000000000000000000000000000000000000000073ffffffffffffffffffffffffffffffffffffffff1661113e611fa1565b73ffffffffffffffffffffffffffffffffffffffff1614611194576040517f08c379a000000000000000000000000000000000000000000000000000000000815260040161118b90614aab565b60405180910390fd5b61119d82611ff8565b6111a982826001612003565b5050565b60006111b7610bcb565b82106111f8576040517f08c379a00000000000000000000000000000000000000000000000000000000081526004016111ef90614bcf565b60405180910390fd5b60cb828154811061120c5761120b614bef565b5b90600052602060002001549050919050565b60007f000000000000000000000000000000000000000000000000000000000000000073ffffffffffffffffffffffffffffffffffffffff163073ffffffffffffffffffffffffffffffffffffffff16146112ae576040517f08c379a00000000000000000000000000000000000000000000000000000000081526004016112a590614c90565b60405180910390fd5b7f360894a13ba1a3210667c828492db98dca3e2076cc3735a920a3ca505d382bbc60001b905090565b6101c45481565b6000806112ea83612363565b9050600073ffffffffffffffffffffffffffffffffffffffff168173ffffffffffffffffffffffffffffffffffffffff16141561135c576040517f08c379a000000000000000000000000000000000000000000000000000000000815260040161135390614cfc565b60405180910390fd5b80915050919050565b60008073ffffffffffffffffffffffffffffffffffffffff168273ffffffffffffffffffffffffffffffffffffffff1614156113d6576040517f08c379a00000000000000000000000000000000000000000000000000000000081526004016113cd90614d8e565b60405180910390fd5b606860008373ffffffffffffffffffffffffffffffffffffffff1673ffffffffffffffffffffffffffffffffffffffff168152602001908152602001600020549050919050565b611425611c54565b61142f60006123a0565b565b60008060019054906101000a900460ff161590508080156114625750600160008054906101000a900460ff1660ff16105b8061148f575061147130612468565b15801561148e5750600160008054906101000a900460ff1660ff16145b5b6114ce576040517f08c379a00000000000000000000000000000000000000000000000000000000081526004016114c590614e20565b60405180910390fd5b60016000806101000a81548160ff021916908360ff160217905550801561150b576001600060016101000a81548160ff0219169083151502179055505b61157f6040518060400160405280600681526020017f53746f6c656e00000000000000000000000000000000000000000000000000008152506040518060400160405280600481526020017f53544f4c0000000000000000000000000000000000000000000000000000000081525061248b565b6115876124e8565b61158f612539565b61159761258a565b61159f6125db565b6115a7612634565b80156116005760008060016101000a81548160ff0219169083151502179055507f7f26b83ff96e1f2b6a682f133852f6798a09c465da95921460cefb384740249860016040516115f79190614e92565b60405180910390a15b50565b600061012d60009054906101000a900473ffffffffffffffffffffffffffffffffffffffff16905090565b60606066805461163d906147bf565b80601f0160208091040260200160405190810160405280929190818152602001828054611669906147bf565b80156116b65780601f1061168b576101008083540402835291602001916116b6565b820191906000526020600020905b81548152906001019060200180831161169957829003601f168201915b5050505050905090565b6101c35481565b6101c3546116d483611365565b10611714576040517f08c379a000000000000000000000000000000000000000000000000000000000815260040161170b90614f1f565b60405180910390fd5b61171e8282612685565b5050565b61173461172d611ed6565b83836126a3565b5050565b6101c55481565b50505050565b606061175082611e8b565b600061175a612810565b9050600081511161177a57604051806020016040528060008152506117a5565b806117848461284d565b604051602001611795929190614f7b565b6040516020818303038152906040525b915050919050565b600015156117ba82612925565b1515146117fc576040517f08c379a00000000000000000000000000000000000000000000000000000000081526004016117f390614feb565b60405180910390fd5b60005b61180882611365565b81101561184d5761183a8261181b611ed6565b6118258585610dc8565b60405180602001604052806000815250612964565b80806118459061500b565b9150506117ff565b5050565b611859611c54565b806101c48190555050565b6000606a60008473ffffffffffffffffffffffffffffffffffffffff1673ffffffffffffffffffffffffffffffffffffffff16815260200190815260200160002060008373ffffffffffffffffffffffffffffffffffffffff1673ffffffffffffffffffffffffffffffffffffffff16815260200190815260200160002060009054906101000a900460ff16905092915050565b6101c35461190c611907611ed6565b611365565b1061194c576040517f08c379a000000000000000000000000000000000000000000000000000000000815260040161194390614f1f565b60405180910390fd5b6101c554341015611992576040517f08c379a0000000000000000000000000000000000000000000000000000000008152600401611989906150c6565b60405180910390fd5b61199b82610972565b3410156119dd576040517f08c379a00000000000000000000000000000000000000000000000000000000081526004016119d490615158565b60405180910390fd5b60006119e883612363565b90506119f58334836129c0565b611a0881611a01611ed6565b8585612964565b505050565b6101c354611a21611a1c611ed6565b611365565b10611a61576040517f08c379a0000000000000000000000000000000000000000000000000000000008152600401611a5890614f1f565b60405180910390fd5b6101c554341015611aa7576040517f08c379a0000000000000000000000000000000000000000000000000000000008152600401611a9e906150c6565b60405180910390fd5b611ab081610972565b341015611af2576040517f08c379a0000000000000000000000000000000000000000000000000000000008152600401611ae990615158565b60405180910390fd5b6000611afd82612363565b9050611b0a8234836129c0565b611b2c81611b16611ed6565b8460405180602001604052806000815250612964565b5050565b611b38611c54565b600073ffffffffffffffffffffffffffffffffffffffff168173ffffffffffffffffffffffffffffffffffffffff161415611ba8576040517f08c379a0000000000000000000000000000000000000000000000000000000008152600401611b9f906151ea565b60405180910390fd5b611bb1816123a0565b50565b611bbc611c54565b806101c58190555050565b611bcf611c54565b806101c38190555050565b60007f780e9d63000000000000000000000000000000000000000000000000000000007bffffffffffffffffffffffffffffffffffffffffffffffffffffffff1916827bffffffffffffffffffffffffffffffffffffffffffffffffffffffff19161480611c4d5750611c4c82612a8a565b5b9050919050565b611c5c611ed6565b73ffffffffffffffffffffffffffffffffffffffff16611c7a611603565b73ffffffffffffffffffffffffffffffffffffffff1614611cd0576040517f08c379a0000000000000000000000000000000000000000000000000000000008152600401611cc790615256565b60405180910390fd5b565b611cda611f97565b6bffffffffffffffffffffffff16816bffffffffffffffffffffffff161115611d38576040517f08c379a0000000000000000000000000000000000000000000000000000000008152600401611d2f906152e8565b60405180910390fd5b600073ffffffffffffffffffffffffffffffffffffffff168273ffffffffffffffffffffffffffffffffffffffff161415611da8576040517f08c379a0000000000000000000000000000000000000000000000000000000008152600401611d9f90615354565b60405180910390fd5b60405180604001604052808373ffffffffffffffffffffffffffffffffffffffff168152602001826bffffffffffffffffffffffff16815250609760008201518160000160006101000a81548173ffffffffffffffffffffffffffffffffffffffff021916908373ffffffffffffffffffffffffffffffffffffffff16021790555060208201518160000160146101000a8154816bffffffffffffffffffffffff02191690836bffffffffffffffffffffffff1602179055509050505050565b6000612710905090565b6000818311611e815781611e83565b825b905092915050565b611e9481612b04565b611ed3576040517f08c379a0000000000000000000000000000000000000000000000000000000008152600401611eca90614cfc565b60405180910390fd5b50565b600033905090565b816069600083815260200190815260200160002060006101000a81548173ffffffffffffffffffffffffffffffffffffffff021916908373ffffffffffffffffffffffffffffffffffffffff160217905550808273ffffffffffffffffffffffffffffffffffffffff16611f51836112de565b73ffffffffffffffffffffffffffffffffffffffff167f8c5be1e5ebec7d5bd14f71427d1e84f3dd0314c0f7b2291e5b200ac8c7c3b92560405160405180910390a45050565b6000612710905090565b6000611fcf7f360894a13ba1a3210667c828492db98dca3e2076cc3735a920a3ca505d382bbc60001b612b45565b60000160009054906101000a900473ffffffffffffffffffffffffffffffffffffffff16905090565b612000611c54565b50565b61202f7f4910fdfa16fed3260ed0e7147f7cc6da11a60208b5b9406d12a635614ffd914360001b612b4f565b60000160009054906101000a900460ff16156120535761204e83612b59565b61217b565b8273ffffffffffffffffffffffffffffffffffffffff166352d1902d6040518163ffffffff1660e01b815260040160206040518083038186803b15801561209957600080fd5b505afa9250505080156120ca57506040513d601f19601f820116820180604052508101906120c791906153a0565b60015b612109576040517f08c379a00000000000000000000000000000000000000000000000000000000081526004016121009061543f565b60405180910390fd5b7f360894a13ba1a3210667c828492db98dca3e2076cc3735a920a3ca505d382bbc60001b811461216e576040517f08c379a0000000000000000000000000000000000000000000000000000000008152600401612165906154d1565b60405180910390fd5b5061217a838383612c12565b5b505050565b60008061218c836112de565b90508073ffffffffffffffffffffffffffffffffffffffff168473ffffffffffffffffffffffffffffffffffffffff1614806121ce57506121cd8185611864565b5b8061220c57508373ffffffffffffffffffffffffffffffffffffffff166121f484610a6d565b73ffffffffffffffffffffffffffffffffffffffff16145b91505092915050565b6000612220826112de565b9050612230816000846001612c3e565b612239826112de565b90506069600083815260200190815260200160002060006101000a81549073ffffffffffffffffffffffffffffffffffffffff02191690556001606860008373ffffffffffffffffffffffffffffffffffffffff1673ffffffffffffffffffffffffffffffffffffffff168152602001908152602001600020600082825403925050819055506067600083815260200190815260200160002060006101000a81549073ffffffffffffffffffffffffffffffffffffffff021916905581600073ffffffffffffffffffffffffffffffffffffffff168273ffffffffffffffffffffffffffffffffffffffff167fddf252ad1be2c89b69c2b068fc378daa952ba7f163c4a11628f55a4df523b3ef60405160405180910390a461235f816000846001612c50565b5050565b60006067600083815260200190815260200160002060009054906101000a900473ffffffffffffffffffffffffffffffffffffffff169050919050565b600061012d60009054906101000a900473ffffffffffffffffffffffffffffffffffffffff1690508161012d60006101000a81548173ffffffffffffffffffffffffffffffffffffffff021916908373ffffffffffffffffffffffffffffffffffffffff1602179055508173ffffffffffffffffffffffffffffffffffffffff168173ffffffffffffffffffffffffffffffffffffffff167f8be0079c531659141344cd1fd0a4f28419497f9722a3daafe3b4186f6b6457e060405160405180910390a35050565b6000808273ffffffffffffffffffffffffffffffffffffffff163b119050919050565b600060019054906101000a900460ff166124da576040517f08c379a00000000000000000000000000000000000000000000000000000000081526004016124d190615563565b60405180910390fd5b6124e48282612c56565b5050565b600060019054906101000a900460ff16612537576040517f08c379a000000000000000000000000000000000000000000000000000000000815260040161252e90615563565b60405180910390fd5b565b600060019054906101000a900460ff16612588576040517f08c379a000000000000000000000000000000000000000000000000000000000815260040161257f90615563565b60405180910390fd5b565b600060019054906101000a900460ff166125d9576040517f08c379a00000000000000000000000000000000000000000000000000000000081526004016125d090615563565b60405180910390fd5b565b600060019054906101000a900460ff1661262a576040517f08c379a000000000000000000000000000000000000000000000000000000000815260040161262190615563565b60405180910390fd5b612632612cd7565b565b600060019054906101000a900460ff16612683576040517f08c379a000000000000000000000000000000000000000000000000000000000815260040161267a90615563565b60405180910390fd5b565b61269f828260405180602001604052806000815250612d38565b5050565b8173ffffffffffffffffffffffffffffffffffffffff168373ffffffffffffffffffffffffffffffffffffffff161415612712576040517f08c379a0000000000000000000000000000000000000000000000000000000008152600401612709906155cf565b60405180910390fd5b80606a60008573ffffffffffffffffffffffffffffffffffffffff1673ffffffffffffffffffffffffffffffffffffffff16815260200190815260200160002060008473ffffffffffffffffffffffffffffffffffffffff1673ffffffffffffffffffffffffffffffffffffffff16815260200190815260200160002060006101000a81548160ff0219169083151502179055508173ffffffffffffffffffffffffffffffffffffffff168373ffffffffffffffffffffffffffffffffffffffff167f17307eab39ab6107e8899845ad3d59bd9653f200f220920489ca2b5937696c31836040516128039190613f69565b60405180910390a3505050565b60606040518060400160405280601281526020017f687474703a2f2f73746f6c656e2e6679692f0000000000000000000000000000815250905090565b60606000600161285c84612d93565b01905060008167ffffffffffffffff81111561287b5761287a61430b565b5b6040519080825280601f01601f1916602001820160405280156128ad5781602001600182028036833780820191505090505b509050600082602001820190505b60011561291a578080600190039150507f3031323334353637383961626364656600000000000000000000000000000000600a86061a8153600a858161290457612903614651565b5b04945060008514156129155761291a565b6128bb565b819350505050919050565b60008173ffffffffffffffffffffffffffffffffffffffff166108fc60009081150290604051600060405180830381858888f193505050509050919050565b61296f848484612ee6565b61297b848484846131e0565b6129ba576040517f08c379a00000000000000000000000000000000000000000000000000000000081526004016129b190615661565b60405180910390fd5b50505050565b6000806129cd8585610bdd565b915091508173ffffffffffffffffffffffffffffffffffffffff166108fc829081150290604051600060405180830381858888f19350505050158015612a17573d6000803e3d6000fd5b508273ffffffffffffffffffffffffffffffffffffffff166108fc8286612a3e9190615681565b9081150290604051600060405180830381858888f19350505050158015612a69573d6000803e3d6000fd5b50836101c66000878152602001908152602001600020819055505050505050565b60007f2a55205a000000000000000000000000000000000000000000000000000000007bffffffffffffffffffffffffffffffffffffffffffffffffffffffff1916827bffffffffffffffffffffffffffffffffffffffffffffffffffffffff19161480612afd5750612afc82613377565b5b9050919050565b60008073ffffffffffffffffffffffffffffffffffffffff16612b2683612363565b73ffffffffffffffffffffffffffffffffffffffff1614159050919050565b6000819050919050565b6000819050919050565b612b6281612468565b612ba1576040517f08c379a0000000000000000000000000000000000000000000000000000000008152600401612b9890615727565b60405180910390fd5b80612bce7f360894a13ba1a3210667c828492db98dca3e2076cc3735a920a3ca505d382bbc60001b612b45565b60000160006101000a81548173ffffffffffffffffffffffffffffffffffffffff021916908373ffffffffffffffffffffffffffffffffffffffff16021790555050565b612c1b83613459565b600082511180612c285750805b15612c3957612c3783836134a8565b505b505050565b612c4a8484848461358c565b50505050565b50505050565b600060019054906101000a900460ff16612ca5576040517f08c379a0000000000000000000000000000000000000000000000000000000008152600401612c9c90615563565b60405180910390fd5b8160659080519060200190612cbb929190613e12565b508060669080519060200190612cd2929190613e12565b505050565b600060019054906101000a900460ff16612d26576040517f08c379a0000000000000000000000000000000000000000000000000000000008152600401612d1d90615563565b60405180910390fd5b612d36612d31611ed6565b6123a0565b565b612d4283836136ec565b612d4f60008484846131e0565b612d8e576040517f08c379a0000000000000000000000000000000000000000000000000000000008152600401612d8590615661565b60405180910390fd5b505050565b600080600090507a184f03e93ff9f4daa797ed6e38ed64bf6a1f0100000000000000008310612df1577a184f03e93ff9f4daa797ed6e38ed64bf6a1f0100000000000000008381612de757612de6614651565b5b0492506040810190505b6d04ee2d6d415b85acef81000000008310612e2e576d04ee2d6d415b85acef81000000008381612e2457612e23614651565b5b0492506020810190505b662386f26fc100008310612e5d57662386f26fc100008381612e5357612e52614651565b5b0492506010810190505b6305f5e1008310612e86576305f5e1008381612e7c57612e7b614651565b5b0492506008810190505b6127108310612eab576127108381612ea157612ea0614651565b5b0492506004810190505b60648310612ece5760648381612ec457612ec3614651565b5b0492506002810190505b600a8310612edd576001810190505b80915050919050565b8273ffffffffffffffffffffffffffffffffffffffff16612f06826112de565b73ffffffffffffffffffffffffffffffffffffffff1614612f5c576040517f08c379a0000000000000000000000000000000000000000000000000000000008152600401612f53906157b9565b60405180910390fd5b600073ffffffffffffffffffffffffffffffffffffffff168273ffffffffffffffffffffffffffffffffffffffff161415612fcc576040517f08c379a0000000000000000000000000000000000000000000000000000000008152600401612fc39061584b565b60405180910390fd5b612fd98383836001612c3e565b8273ffffffffffffffffffffffffffffffffffffffff16612ff9826112de565b73ffffffffffffffffffffffffffffffffffffffff161461304f576040517f08c379a0000000000000000000000000000000000000000000000000000000008152600401613046906157b9565b60405180910390fd5b6069600082815260200190815260200160002060006101000a81549073ffffffffffffffffffffffffffffffffffffffff02191690556001606860008573ffffffffffffffffffffffffffffffffffffffff1673ffffffffffffffffffffffffffffffffffffffff168152602001908152602001600020600082825403925050819055506001606860008473ffffffffffffffffffffffffffffffffffffffff1673ffffffffffffffffffffffffffffffffffffffff16815260200190815260200160002060008282540192505081905550816067600083815260200190815260200160002060006101000a81548173ffffffffffffffffffffffffffffffffffffffff021916908373ffffffffffffffffffffffffffffffffffffffff160217905550808273ffffffffffffffffffffffffffffffffffffffff168473ffffffffffffffffffffffffffffffffffffffff167fddf252ad1be2c89b69c2b068fc378daa952ba7f163c4a11628f55a4df523b3ef60405160405180910390a46131db8383836001612c50565b505050565b60006132018473ffffffffffffffffffffffffffffffffffffffff16612468565b1561336a578373ffffffffffffffffffffffffffffffffffffffff1663150b7a0261322a611ed6565b8786866040518563ffffffff1660e01b815260040161324c94939291906158c0565b602060405180830381600087803b15801561326657600080fd5b505af192505050801561329757506040513d601f19601f820116820180604052508101906132949190615921565b60015b61331a573d80600081146132c7576040519150601f19603f3d011682016040523d82523d6000602084013e6132cc565b606091505b50600081511415613312576040517f08c379a000000000000000000000000000000000000000000000000000000000815260040161330990615661565b60405180910390fd5b805181602001fd5b63150b7a0260e01b7bffffffffffffffffffffffffffffffffffffffffffffffffffffffff1916817bffffffffffffffffffffffffffffffffffffffffffffffffffffffff19161491505061336f565b600190505b949350505050565b60007f80ac58cd000000000000000000000000000000000000000000000000000000007bffffffffffffffffffffffffffffffffffffffffffffffffffffffff1916827bffffffffffffffffffffffffffffffffffffffffffffffffffffffff1916148061344257507f5b5e139f000000000000000000000000000000000000000000000000000000007bffffffffffffffffffffffffffffffffffffffffffffffffffffffff1916827bffffffffffffffffffffffffffffffffffffffffffffffffffffffff1916145b8061345257506134518261390a565b5b9050919050565b61346281612b59565b8073ffffffffffffffffffffffffffffffffffffffff167fbc7cd75a20ee27fd9adebab32041f755214dbc6bffa90cc0225b39da2e5c2d3b60405160405180910390a250565b60606134b383612468565b6134f2576040517f08c379a00000000000000000000000000000000000000000000000000000000081526004016134e9906159c0565b60405180910390fd5b6000808473ffffffffffffffffffffffffffffffffffffffff168460405161351a9190615a1c565b600060405180830381855af49150503d8060008114613555576040519150601f19603f3d011682016040523d82523d6000602084013e61355a565b606091505b50915091506135828282604051806060016040528060278152602001615bcd60279139613974565b9250505092915050565b61359884848484613996565b60018111156135dc576040517f08c379a00000000000000000000000000000000000000000000000000000000081526004016135d390615aa5565b60405180910390fd5b6000829050600073ffffffffffffffffffffffffffffffffffffffff168573ffffffffffffffffffffffffffffffffffffffff1614156136245761361f81613abc565b613663565b8373ffffffffffffffffffffffffffffffffffffffff168573ffffffffffffffffffffffffffffffffffffffff1614613662576136618582613b05565b5b5b600073ffffffffffffffffffffffffffffffffffffffff168473ffffffffffffffffffffffffffffffffffffffff1614156136a6576136a181613c72565b6136e5565b8473ffffffffffffffffffffffffffffffffffffffff168473ffffffffffffffffffffffffffffffffffffffff16146136e4576136e38482613d43565b5b5b5050505050565b600073ffffffffffffffffffffffffffffffffffffffff168273ffffffffffffffffffffffffffffffffffffffff16141561375c576040517f08c379a000000000000000000000000000000000000000000000000000000000815260040161375390615b11565b60405180910390fd5b61376581612b04565b156137a5576040517f08c379a000000000000000000000000000000000000000000000000000000000815260040161379c90615b7d565b60405180910390fd5b6137b3600083836001612c3e565b6137bc81612b04565b156137fc576040517f08c379a00000000000000000000000000000000000000000000000000000000081526004016137f390615b7d565b60405180910390fd5b6001606860008473ffffffffffffffffffffffffffffffffffffffff1673ffffffffffffffffffffffffffffffffffffffff16815260200190815260200160002060008282540192505081905550816067600083815260200190815260200160002060006101000a81548173ffffffffffffffffffffffffffffffffffffffff021916908373ffffffffffffffffffffffffffffffffffffffff160217905550808273ffffffffffffffffffffffffffffffffffffffff16600073ffffffffffffffffffffffffffffffffffffffff167fddf252ad1be2c89b69c2b068fc378daa952ba7f163c4a11628f55a4df523b3ef60405160405180910390a4613906600083836001612c50565b5050565b60007f01ffc9a7000000000000000000000000000000000000000000000000000000007bffffffffffffffffffffffffffffffffffffffffffffffffffffffff1916827bffffffffffffffffffffffffffffffffffffffffffffffffffffffff1916149050919050565b606083156139845782905061398f565b61398e8383613dc2565b5b9392505050565b6001811115613ab657600073ffffffffffffffffffffffffffffffffffffffff168473ffffffffffffffffffffffffffffffffffffffff1614613a2a5780606860008673ffffffffffffffffffffffffffffffffffffffff1673ffffffffffffffffffffffffffffffffffffffff1681526020019081526020016000206000828254613a229190615681565b925050819055505b600073ffffffffffffffffffffffffffffffffffffffff168373ffffffffffffffffffffffffffffffffffffffff1614613ab55780606860008573ffffffffffffffffffffffffffffffffffffffff1673ffffffffffffffffffffffffffffffffffffffff1681526020019081526020016000206000828254613aad91906146e0565b925050819055505b5b50505050565b60cb8054905060cc60008381526020019081526020016000208190555060cb81908060018154018082558091505060019003906000526020600020016000909190919091505550565b60006001613b1284611365565b613b1c9190615681565b9050600060ca6000848152602001908152602001600020549050818114613c0157600060c960008673ffffffffffffffffffffffffffffffffffffffff1673ffffffffffffffffffffffffffffffffffffffff16815260200190815260200160002060008481526020019081526020016000205490508060c960008773ffffffffffffffffffffffffffffffffffffffff1673ffffffffffffffffffffffffffffffffffffffff1681526020019081526020016000206000848152602001908152602001600020819055508160ca600083815260200190815260200160002081905550505b60ca60008481526020019081526020016000206000905560c960008573ffffffffffffffffffffffffffffffffffffffff1673ffffffffffffffffffffffffffffffffffffffff16815260200190815260200160002060008381526020019081526020016000206000905550505050565b6000600160cb80549050613c869190615681565b9050600060cc6000848152602001908152602001600020549050600060cb8381548110613cb657613cb5614bef565b5b906000526020600020015490508060cb8381548110613cd857613cd7614bef565b5b90600052602060002001819055508160cc60008381526020019081526020016000208190555060cc60008581526020019081526020016000206000905560cb805480613d2757613d26615b9d565b5b6001900381819060005260206000200160009055905550505050565b6000613d4e83611365565b90508160c960008573ffffffffffffffffffffffffffffffffffffffff1673ffffffffffffffffffffffffffffffffffffffff1681526020019081526020016000206000838152602001908152602001600020819055508060ca600084815260200190815260200160002081905550505050565b600082511115613dd55781518083602001fd5b806040517f08c379a0000000000000000000000000000000000000000000000000000000008152600401613e09919061418c565b60405180910390fd5b828054613e1e906147bf565b90600052602060002090601f016020900481019282613e405760008555613e87565b82601f10613e5957805160ff1916838001178555613e87565b82800160010185558215613e87579182015b82811115613e86578251825591602001919060010190613e6b565b5b509050613e949190613e98565b5090565b5b80821115613eb1576000816000905550600101613e99565b5090565b6000604051905090565b600080fd5b600080fd5b60007fffffffff0000000000000000000000000000000000000000000000000000000082169050919050565b613efe81613ec9565b8114613f0957600080fd5b50565b600081359050613f1b81613ef5565b92915050565b600060208284031215613f3757613f36613ebf565b5b6000613f4584828501613f0c565b91505092915050565b60008115159050919050565b613f6381613f4e565b82525050565b6000602082019050613f7e6000830184613f5a565b92915050565b600073ffffffffffffffffffffffffffffffffffffffff82169050919050565b6000613faf82613f84565b9050919050565b613fbf81613fa4565b8114613fca57600080fd5b50565b600081359050613fdc81613fb6565b92915050565b60006bffffffffffffffffffffffff82169050919050565b61400381613fe2565b811461400e57600080fd5b50565b60008135905061402081613ffa565b92915050565b6000806040838503121561403d5761403c613ebf565b5b600061404b85828601613fcd565b925050602061405c85828601614011565b9150509250929050565b6000819050919050565b61407981614066565b811461408457600080fd5b50565b60008135905061409681614070565b92915050565b6000602082840312156140b2576140b1613ebf565b5b60006140c084828501614087565b91505092915050565b6140d281614066565b82525050565b60006020820190506140ed60008301846140c9565b92915050565b600081519050919050565b600082825260208201905092915050565b60005b8381101561412d578082015181840152602081019050614112565b8381111561413c576000848401525b50505050565b6000601f19601f8301169050919050565b600061415e826140f3565b61416881856140fe565b935061417881856020860161410f565b61418181614142565b840191505092915050565b600060208201905081810360008301526141a68184614153565b905092915050565b6141b781613fa4565b82525050565b60006020820190506141d260008301846141ae565b92915050565b600080604083850312156141ef576141ee613ebf565b5b60006141fd85828601613fcd565b925050602061420e85828601614087565b9150509250929050565b60008060006060848603121561423157614230613ebf565b5b600061423f86828701613fcd565b935050602061425086828701613fcd565b925050604061426186828701614087565b9150509250925092565b6000806040838503121561428257614281613ebf565b5b600061429085828601614087565b92505060206142a185828601614087565b9150509250929050565b60006040820190506142c060008301856141ae565b6142cd60208301846140c9565b9392505050565b6000602082840312156142ea576142e9613ebf565b5b60006142f884828501613fcd565b91505092915050565b600080fd5b600080fd5b7f4e487b7100000000000000000000000000000000000000000000000000000000600052604160045260246000fd5b61434382614142565b810181811067ffffffffffffffff821117156143625761436161430b565b5b80604052505050565b6000614375613eb5565b9050614381828261433a565b919050565b600067ffffffffffffffff8211156143a1576143a061430b565b5b6143aa82614142565b9050602081019050919050565b82818337600083830152505050565b60006143d96143d484614386565b61436b565b9050828152602081018484840111156143f5576143f4614306565b5b6144008482856143b7565b509392505050565b600082601f83011261441d5761441c614301565b5b813561442d8482602086016143c6565b91505092915050565b6000806040838503121561444d5761444c613ebf565b5b600061445b85828601613fcd565b925050602083013567ffffffffffffffff81111561447c5761447b613ec4565b5b61448885828601614408565b9150509250929050565b6000819050919050565b6144a581614492565b82525050565b60006020820190506144c0600083018461449c565b92915050565b6144cf81613f4e565b81146144da57600080fd5b50565b6000813590506144ec816144c6565b92915050565b6000806040838503121561450957614508613ebf565b5b600061451785828601613fcd565b9250506020614528858286016144dd565b9150509250929050565b6000806000806080858703121561454c5761454b613ebf565b5b600061455a87828801613fcd565b945050602061456b87828801613fcd565b935050604061457c87828801614087565b925050606085013567ffffffffffffffff81111561459d5761459c613ec4565b5b6145a987828801614408565b91505092959194509250565b600080604083850312156145cc576145cb613ebf565b5b60006145da85828601613fcd565b92505060206145eb85828601613fcd565b9150509250929050565b6000806040838503121561460c5761460b613ebf565b5b600061461a85828601614087565b925050602083013567ffffffffffffffff81111561463b5761463a613ec4565b5b61464785828601614408565b9150509250929050565b7f4e487b7100000000000000000000000000000000000000000000000000000000600052601260045260246000fd5b7f4e487b7100000000000000000000000000000000000000000000000000000000600052601160045260246000fd5b60006146ba82614066565b91506146c583614066565b9250826146d5576146d4614651565b5b828204905092915050565b60006146eb82614066565b91506146f683614066565b9250827fffffffffffffffffffffffffffffffffffffffffffffffffffffffffffffffff0382111561472b5761472a614680565b5b828201905092915050565b600061474182614066565b915061474c83614066565b9250817fffffffffffffffffffffffffffffffffffffffffffffffffffffffffffffffff048311821515161561478557614784614680565b5b828202905092915050565b7f4e487b7100000000000000000000000000000000000000000000000000000000600052602260045260246000fd5b600060028204905060018216806147d757607f821691505b602082108114156147eb576147ea614790565b5b50919050565b7f4552433732313a20617070726f76616c20746f2063757272656e74206f776e6560008201527f7200000000000000000000000000000000000000000000000000000000000000602082015250565b600061484d6021836140fe565b9150614858826147f1565b604082019050919050565b6000602082019050818103600083015261487c81614840565b9050919050565b7f4552433732313a20617070726f76652063616c6c6572206973206e6f7420746f60008201527f6b656e206f776e6572206f7220617070726f76656420666f7220616c6c000000602082015250565b60006148df603d836140fe565b91506148ea82614883565b604082019050919050565b6000602082019050818103600083015261490e816148d2565b9050919050565b7f455243373231456e756d657261626c653a206f776e657220696e646578206f7560008201527f74206f6620626f756e6473000000000000000000000000000000000000000000602082015250565b6000614971602b836140fe565b915061497c82614915565b604082019050919050565b600060208201905081810360008301526149a081614964565b9050919050565b7f46756e6374696f6e206d7573742062652063616c6c6564207468726f7567682060008201527f64656c656761746563616c6c0000000000000000000000000000000000000000602082015250565b6000614a03602c836140fe565b9150614a0e826149a7565b604082019050919050565b60006020820190508181036000830152614a32816149f6565b9050919050565b7f46756e6374696f6e206d7573742062652063616c6c6564207468726f7567682060008201527f6163746976652070726f78790000000000000000000000000000000000000000602082015250565b6000614a95602c836140fe565b9150614aa082614a39565b604082019050919050565b60006020820190508181036000830152614ac481614a88565b9050919050565b7f4552433732313a2063616c6c6572206973206e6f7420746f6b656e206f776e6560008201527f72206f7220617070726f76656400000000000000000000000000000000000000602082015250565b6000614b27602d836140fe565b9150614b3282614acb565b604082019050919050565b60006020820190508181036000830152614b5681614b1a565b9050919050565b7f455243373231456e756d657261626c653a20676c6f62616c20696e646578206f60008201527f7574206f6620626f756e64730000000000000000000000000000000000000000602082015250565b6000614bb9602c836140fe565b9150614bc482614b5d565b604082019050919050565b60006020820190508181036000830152614be881614bac565b9050919050565b7f4e487b7100000000000000000000000000000000000000000000000000000000600052603260045260246000fd5b7f555550535570677261646561626c653a206d757374206e6f742062652063616c60008201527f6c6564207468726f7567682064656c656761746563616c6c0000000000000000602082015250565b6000614c7a6038836140fe565b9150614c8582614c1e565b604082019050919050565b60006020820190508181036000830152614ca981614c6d565b9050919050565b7f4552433732313a20696e76616c696420746f6b656e2049440000000000000000600082015250565b6000614ce66018836140fe565b9150614cf182614cb0565b602082019050919050565b60006020820190508181036000830152614d1581614cd9565b9050919050565b7f4552433732313a2061646472657373207a65726f206973206e6f74206120766160008201527f6c6964206f776e65720000000000000000000000000000000000000000000000602082015250565b6000614d786029836140fe565b9150614d8382614d1c565b604082019050919050565b60006020820190508181036000830152614da781614d6b565b9050919050565b7f496e697469616c697a61626c653a20636f6e747261637420697320616c72656160008201527f647920696e697469616c697a6564000000000000000000000000000000000000602082015250565b6000614e0a602e836140fe565b9150614e1582614dae565b604082019050919050565b60006020820190508181036000830152614e3981614dfd565b9050919050565b6000819050919050565b600060ff82169050919050565b6000819050919050565b6000614e7c614e77614e7284614e40565b614e57565b614e4a565b9050919050565b614e8c81614e61565b82525050565b6000602082019050614ea76000830184614e83565b92915050565b7f416464726573732063616e6e6f74206f776e206d6f7265207468616e2074687260008201527f656520746f6b656e7320617420612074696d6500000000000000000000000000602082015250565b6000614f096033836140fe565b9150614f1482614ead565b604082019050919050565b60006020820190508181036000830152614f3881614efc565b9050919050565b600081905092915050565b6000614f55826140f3565b614f5f8185614f3f565b9350614f6f81856020860161410f565b80840191505092915050565b6000614f878285614f4a565b9150614f938284614f4a565b91508190509392505050565b7f41646472657373206d757374206265206e6f6e2d70617961626c650000000000600082015250565b6000614fd5601b836140fe565b9150614fe082614f9f565b602082019050919050565b6000602082019050818103600083015261500481614fc8565b9050919050565b600061501682614066565b91507fffffffffffffffffffffffffffffffffffffffffffffffffffffffffffffffff82141561504957615048614680565b5b600182019050919050565b7f5072696365206d7573742062652067726561746572207468616e206d696e696d60008201527f756d207075726368617365207468726573686f6c640000000000000000000000602082015250565b60006150b06035836140fe565b91506150bb82615054565b604082019050919050565b600060208201905081810360008301526150df816150a3565b9050919050565b7f5072696365206d7573742062652067726561746572207468616e206d696e696d60008201527f756d206368616e67650000000000000000000000000000000000000000000000602082015250565b60006151426029836140fe565b915061514d826150e6565b604082019050919050565b6000602082019050818103600083015261517181615135565b9050919050565b7f4f776e61626c653a206e6577206f776e657220697320746865207a65726f206160008201527f6464726573730000000000000000000000000000000000000000000000000000602082015250565b60006151d46026836140fe565b91506151df82615178565b604082019050919050565b60006020820190508181036000830152615203816151c7565b9050919050565b7f4f776e61626c653a2063616c6c6572206973206e6f7420746865206f776e6572600082015250565b60006152406020836140fe565b915061524b8261520a565b602082019050919050565b6000602082019050818103600083015261526f81615233565b9050919050565b7f455243323938313a20726f79616c7479206665652077696c6c2065786365656460008201527f2073616c65507269636500000000000000000000000000000000000000000000602082015250565b60006152d2602a836140fe565b91506152dd82615276565b604082019050919050565b60006020820190508181036000830152615301816152c5565b9050919050565b7f455243323938313a20696e76616c696420726563656976657200000000000000600082015250565b600061533e6019836140fe565b915061534982615308565b602082019050919050565b6000602082019050818103600083015261536d81615331565b9050919050565b61537d81614492565b811461538857600080fd5b50565b60008151905061539a81615374565b92915050565b6000602082840312156153b6576153b5613ebf565b5b60006153c48482850161538b565b91505092915050565b7f45524331393637557067726164653a206e657720696d706c656d656e7461746960008201527f6f6e206973206e6f742055555053000000000000000000000000000000000000602082015250565b6000615429602e836140fe565b9150615434826153cd565b604082019050919050565b600060208201905081810360008301526154588161541c565b9050919050565b7f45524331393637557067726164653a20756e737570706f727465642070726f7860008201527f6961626c65555549440000000000000000000000000000000000000000000000602082015250565b60006154bb6029836140fe565b91506154c68261545f565b604082019050919050565b600060208201905081810360008301526154ea816154ae565b9050919050565b7f496e697469616c697a61626c653a20636f6e7472616374206973206e6f74206960008201527f6e697469616c697a696e67000000000000000000000000000000000000000000602082015250565b600061554d602b836140fe565b9150615558826154f1565b604082019050919050565b6000602082019050818103600083015261557c81615540565b9050919050565b7f4552433732313a20617070726f766520746f2063616c6c657200000000000000600082015250565b60006155b96019836140fe565b91506155c482615583565b602082019050919050565b600060208201905081810360008301526155e8816155ac565b9050919050565b7f4552433732313a207472616e7366657220746f206e6f6e20455243373231526560008201527f63656976657220696d706c656d656e7465720000000000000000000000000000602082015250565b600061564b6032836140fe565b9150615656826155ef565b604082019050919050565b6000602082019050818103600083015261567a8161563e565b9050919050565b600061568c82614066565b915061569783614066565b9250828210156156aa576156a9614680565b5b828203905092915050565b7f455243313936373a206e657720696d706c656d656e746174696f6e206973206e60008201527f6f74206120636f6e747261637400000000000000000000000000000000000000602082015250565b6000615711602d836140fe565b915061571c826156b5565b604082019050919050565b6000602082019050818103600083015261574081615704565b9050919050565b7f4552433732313a207472616e736665722066726f6d20696e636f72726563742060008201527f6f776e6572000000000000000000000000000000000000000000000000000000602082015250565b60006157a36025836140fe565b91506157ae82615747565b604082019050919050565b600060208201905081810360008301526157d281615796565b9050919050565b7f4552433732313a207472616e7366657220746f20746865207a65726f2061646460008201527f7265737300000000000000000000000000000000000000000000000000000000602082015250565b60006158356024836140fe565b9150615840826157d9565b604082019050919050565b6000602082019050818103600083015261586481615828565b9050919050565b600081519050919050565b600082825260208201905092915050565b60006158928261586b565b61589c8185615876565b93506158ac81856020860161410f565b6158b581614142565b840191505092915050565b60006080820190506158d560008301876141ae565b6158e260208301866141ae565b6158ef60408301856140c9565b81810360608301526159018184615887565b905095945050505050565b60008151905061591b81613ef5565b92915050565b60006020828403121561593757615936613ebf565b5b60006159458482850161590c565b91505092915050565b7f416464726573733a2064656c65676174652063616c6c20746f206e6f6e2d636f60008201527f6e74726163740000000000000000000000000000000000000000000000000000602082015250565b60006159aa6026836140fe565b91506159b58261594e565b604082019050919050565b600060208201905081810360008301526159d98161599d565b9050919050565b600081905092915050565b60006159f68261586b565b615a0081856159e0565b9350615a1081856020860161410f565b80840191505092915050565b6000615a2882846159eb565b915081905092915050565b7f455243373231456e756d657261626c653a20636f6e736563757469766520747260008201527f616e7366657273206e6f7420737570706f727465640000000000000000000000602082015250565b6000615a8f6035836140fe565b9150615a9a82615a33565b604082019050919050565b60006020820190508181036000830152615abe81615a82565b9050919050565b7f4552433732313a206d696e7420746f20746865207a65726f2061646472657373600082015250565b6000615afb6020836140fe565b9150615b0682615ac5565b602082019050919050565b60006020820190508181036000830152615b2a81615aee565b9050919050565b7f4552433732313a20746f6b656e20616c7265616479206d696e74656400000000600082015250565b6000615b67601c836140fe565b9150615b7282615b31565b602082019050919050565b60006020820190508181036000830152615b9681615b5a565b9050919050565b7f4e487b7100000000000000000000000000000000000000000000000000000000600052603160045260246000fdfe416464726573733a206c6f772d6c6576656c2064656c65676174652063616c6c206661696c6564a2646970667358221220d0f327297c3a29b700cb86361757490fe7fc2ddccf3c7b40e4538d7813ff488d64736f6c63430008090033",
  "linkReferences": {},
  "deployedLinkReferences": {}
}